:020000040800F2
:1000000000500020F1410008394200083942000840
:100010003942000839420008394200080000000057
:10002000000000000000000000000000394200084D
:100030003942000800000000394200084B7C0008EB
:1000400039420008394200083942000839420008A4
:1000500039420008394200086DA3000877A3000860
:1000600081A300088BA3000895A30008394200086B
:100070003942000839420008394200083942000874
:100080003942000839420008394200083942000864
:100090003942000839420008394200089FA300088D
:1000A00039420008259A000839420008399A0008A8
:1000B0004D9A0008619A0008759A0008FD8C0008A6
:1000C0000D8D00081D8D00082D8D00083942000897
:1000D00039420008659000087D900008959000085E
:1000E000B5A300084583000839420008000000005D
:1000F0000000000000000000000000000000000000
:0C01000000000000000000005FF808F1A3
:10010C00034613F8012B002AFBD1181A013870474B
:10011C0081F0004102E000BF83F0004330B54FEAAC
:10012C0041044FEA430594EA050F08BF90EA020F19
:10013C001FBF54EA000C55EA020C7FEA645C7FEAAC
:10014C00655C00F0E2804FEA5454D4EB5555B8BFCF
:10015C006D420CDD2C4480EA020281EA030382EA40
:10016C00000083EA010180EA020281EA0303362DD2
:10017C0088BF30BD11F0004F4FEA01314FF4801CA5
:10018C004CEA113102D0404261EB410113F0004FB7
:10019C004FEA03334CEA133302D0524263EB43036E
:1001AC0094EA050F00F0A780A4F10104D5F1200E0C
:1001BC000DDB02FA0EFC22FA05F2801841F1000167
:1001CC0003FA0EF2801843FA05F359410EE0A5F13B
:1001DC0020050EF1200E012A03FA0EFC28BF4CF06C
:1001EC00020C43FA05F3C01851EBE37101F0004522
:1001FC0007D54FF0000EDCF1000C7EEB00006EEB2F
:10020C000101B1F5801F1BD3B1F5001F0CD34908B8
:10021C005FEA30004FEA3C0C04F101044FEA44520F
:10022C0012F5800F80F09A80BCF1004F08BF5FEA96
:10023C00500C50F1000041EB045141EA050130BD76
:10024C005FEA4C0C404141EB010111F4801FA4F119
:10025C000104E9D191F0000F04BF01460020B1FA6E
:10026C0081F308BF2033A3F10B03B3F120020CDAA6
:10027C000C3208DD02F1140CC2F10C0201FA0CF084
:10028C0021FA02F10CE002F11402D8BFC2F1200CE9
:10029C0001FA02F120FA0CFCDCBF41EA0C0190409F
:1002AC00E41AA2BF01EB0451294330BD6FEA0404E8
:1002BC001F3C1CDA0C340EDC04F11404C4F12002D3
:1002CC0020FA04F001FA02F340EA030021FA04F3E5
:1002DC0045EA030130BDC4F10C04C4F1200220FA3C
:1002EC0002F001FA04F340EA0300294630BD21FA7A
:1002FC0004F0294630BD94F0000F83F4801306BF40
:10030C0081F480110134013D4EE77FEA645C18BF33
:10031C007FEA655C29D094EA050F08BF90EA020FCA
:10032C0005D054EA000C04BF1946104630BD91EAC2
:10033C00030F1EBF0021002030BD5FEA545C05D1C5
:10034C004000494128BF41F0004130BD14F5800404
:10035C003CBF01F5801130BD01F0004545F0FE4178
:10036C0041F470014FF0000030BD7FEA645C1ABFAD
:10037C00194610467FEA655C1CBF0B46024650EAE4
:10038C00013406BF52EA033591EA030F41F4002110
:10039C0030BD00BF90F0000F04BF0021704730B596
:1003AC004FF4806404F132044FF000054FF000016B
:1003BC0050E700BF90F0000F04BF0021704730B52C
:1003CC004FF4806404F1320410F0004548BF404201
:1003DC004FF000013EE700BF42004FEAE2014FEA56
:1003EC0031014FEA02701FBF12F07F4393F07F4F31
:1003FC0081F06051704732F07F4208BF704793F034
:10040C007F4F04BF41F40021704730B54FF4607446
:10041C0001F0004521F000411CE700BF50EA010249
:10042C0008BF704730B54FF000050AE050EA0102F2
:10043C0008BF704730B511F0004502D5404261EB62
:10044C0041014FF4806404F132045FEA915C3FF4A3
:10045C00D8AE4FF003025FEADC0C18BF03325FEA40
:10046C00DC0C18BF033202EBDC02C2F1200300FAF1
:10047C0003FC20FA02F001FA03FE40EA0E0021FA16
:10048C0002F11444BDE600BF70B54FF0FF0C4CF404
:10049C00E06C1CEA11541DBF1CEA135594EA0C0FB6
:1004AC0095EA0C0F00F0DEF82C4481EA030621EAF1
:1004BC004C5123EA4C5350EA013518BF52EA03352C
:1004CC0041F4801143F4801338D0A0FB02CE4FF0DE
:1004DC000005E1FB02E506F00042E0FB03E54FF00E
:1004EC000006E1FB03569CF0000F18BF4EF0010E06
:1004FC00A4F1FF04B6F5007F64F5407404D25FEA02
:10050C004E0E6D4146EB060642EAC62141EA5551B4
:10051C004FEAC52040EA5E504FEACE2EB4F1FD0CF6
:10052C0088BFBCF5E06F1ED8BEF1004F08BF5FEA74
:10053C00500E50F1000041EB045170BD06F0004626
:10054C0046EA010140EA020081EA0301B4EB5C04D3
:10055C00C2BFD4EB0C0541EA045170BD41F48011CB
:10056C004FF0000E013C00F3AB8014F1360FDEBFF0
:10057C00002001F0004170BDC4F10004203C35DACC
:10058C000C341BDC04F11404C4F1200500FA05F34F
:10059C0020FA04F001FA05F240EA020001F00042F0
:1005AC0021F0004110EBD37021FA04F642EB060166
:1005BC005EEA430E08BF20EAD37070BDC4F10C0490
:1005CC00C4F1200500FA04F320FA05F001FA04F254
:1005DC0040EA020001F0004110EBD37041F1000140
:1005EC005EEA430E08BF20EAD37070BDC4F120054B
:1005FC0000FA05F24EEA020E20FA04F301FA05F2B3
:10060C0043EA020321FA04F001F0004121FA04F25A
:10061C0020EA020000EBD3705EEA430E08BF20EA2A
:10062C00D37070BD94F0000F0FD101F00046400064
:10063C0041EB010111F4801F08BF013CF7D041EAE6
:10064C00060195F0000F18BF704703F000465200EA
:10065C0043EB030313F4801F08BF013DF7D043EABB
:10066C000603704794EA0C0F0CEA135518BF95EA71
:10067C000C0F0CD050EA410618BF52EA4306D1D1F8
:10068C0081EA030101F000414FF0000070BD50EA17
:10069C00410606BF1046194652EA430619D094EAA1
:1006AC000C0F02D150EA013613D195EA0C0F05D18B
:1006BC0052EA03361CBF104619460AD181EA0301DF
:1006CC0001F0004141F0FE4141F470014FF0000097
:1006DC0070BD41F0FE4141F4780170BD70B54FF032
:1006EC00FF0C4CF4E06C1CEA11541DBF1CEA1355B2
:1006FC0094EA0C0F95EA0C0F00F0A7F8A4EB050494
:10070C0081EA030E52EA03354FEA013100F088808A
:10071C004FEA03334FF0805545EA131343EA126353
:10072C004FEA022245EA111545EA10654FEA002608
:10073C000EF000419D4208BF964244F1FD0404F5C1
:10074C00407402D25B084FEA3202B61A65EB03051D
:10075C005B084FEA32024FF480104FF4002CB6EBDA
:10076C00020E75EB030E22BFB61A754640EA0C005A
:10077C005B084FEA3202B6EB020E75EB030E22BF9A
:10078C00B61A754640EA5C005B084FEA3202B6EBDB
:10079C00020E75EB030E22BFB61A754640EA9C009A
:1007AC005B084FEA3202B6EB020E75EB030E22BF6A
:1007BC00B61A754640EADC0055EA060E18D04FEA28
:1007CC00051545EA16754FEA06164FEAC30343EAC8
:1007DC0052734FEAC2025FEA1C1CC0D111F4801F95
:1007EC000BD141EA00014FF000004FF0004CB6E78E
:1007FC0011F4801F04BF01430020B4F1FD0C88BF2D
:10080C00BCF5E06F3FF6AFAEB5EB030C04BFB6EB37
:10081C00020C5FEA500C50F1000041EB045170BD2A
:10082C000EF0004E4EEA113114EB5C04C2BFD4EB57
:10083C000C0541EA045170BD41F480114FF0000EDB
:10084C00013C90E645EA060E8DE60CEA135594EA57
:10085C000C0F08BF95EA0C0F3FF43BAF94EA0C0F5A
:10086C000AD150EA01347FF434AF95EA0C0F7FF4CF
:10087C0025AF104619462CE795EA0C0F06D152EA23
:10088C0003353FF4FDAE1046194622E750EA410607
:10089C0018BF52EA43067FF4C5AE50EA41047FF418
:1008AC000DAF52EA43057FF4EBAE12E74FF0FF3C7D
:1008BC0006E000BF4FF0010C02E000BF4FF0010C4E
:1008CC004DF804CD4FEA410C7FEA6C5C4FEA430CC7
:1008DC0018BF7FEA6C5C1BD001B050EA410C0CBF16
:1008EC0052EA430C91EA030F02BF90EA020F002078
:1008FC00704710F1000F91EA030F58BF994208BFDF
:10090C0090422CBFD8176FEAE37040F0010070479B
:10091C004FEA410C7FEA6C5C02D150EA013C07D1F2
:10092C004FEA430C7FEA6C5CD6D152EA033CD3D03D
:10093C005DF8040B704700BF8446104662468C4637
:10094C001946634600E000BF01B5FFF7B7FF00286A
:10095C0048BF10F1000F01BD4DF808EDFFF7F4FF93
:10096C000CBF012000205DF808FB00BF4DF808ED1E
:10097C00FFF7EAFF34BF012000205DF808FB00BF41
:10098C004DF808EDFFF7E0FF94BF012000205DF863
:10099C0008FB00BF4DF808EDFFF7CEFF94BF012018
:1009AC0000205DF808FB00BF4DF808EDFFF7C4FF11
:1009BC0034BF012000205DF808FB00BF4FEA410C5A
:1009CC007FEA6C5C02D150EA013C0AD14FEA430C3D
:1009DC007FEA6C5C02D152EA033C02D14FF000007A
:1009EC0070474FF0010070474FEA410212F50012B8
:1009FC0015D211D56FF47873B3EB625212D94FEA5A
:100A0C00C12343F0004343EA505311F0004F23FA43
:100A1C0002F018BF404270474FF00000704750EA98
:100A2C00013005D111F0004008BF6FF00040704755
:100A3C004FF00000704700BF4A0011D212F50012AF
:100A4C0011D20DD56FF47873B3EB62520ED44FEA1A
:100A5C00C12343F0004343EA505323FA02F070479A
:100A6C004FF00000704750EA013002D14FF0FF30D8
:100A7C0070474FF0000070474FEA4102B2F1E0437B
:100A8C0024BFB3F5001CDCF1FE5C0DD901F0004C69
:100A9C004FEAC0024CEA5070B2F1004F40EB8300B9
:100AAC0008BF20F00100704711F0804F21D113F1E5
:100ABC003872BCBF01F00040704741F480114FEA1E
:100ACC005252C2F11802C2F1200C10FA0CF320FAA7
:100ADC0002F018BF40F001004FEAC1234FEAD323C4
:100AEC0003FA0CFC40EA0C0023FA02F34FEA43032E
:100AFC00CCE77FEA625307D150EA01331EBF4FF0B7
:100B0C00FE4040F44000704701F0004040F0FE40D1
:100B1C0040F40000704700BF80F0004002E000BFCE
:100B2C0081F0004142001FBF5FEA410392EA030FCC
:100B3C007FEA226C7FEA236C6AD04FEA1262D2EB16
:100B4C001363C1BFD218414048404140B8BF5B421B
:100B5C00192B88BF704710F0004F40F4000020F0B4
:100B6C007F4018BF404211F0004F41F4000121F0CA
:100B7C007F4118BF494292EA030F3FD0A2F1010214
:100B8C0041FA03FC10EB0C00C3F1200301FA03F152
:100B9C0000F0004302D5494260EB4000B0F5000F75
:100BAC0013D3B0F1807F06D340084FEA310102F134
:100BBC000102FE2A51D2B1F1004F40EBC25008BFE6
:100BCC0020F0010040EA03007047490040EB0000B0
:100BDC0010F4000FA2F10102EDD1B0FA80FCACF1DF
:100BEC00080CB2EB0C0200FA0CF0AABF00EBC250DE
:100BFC0052421843BCBFD0401843704792F0000FCC
:100C0C0081F4000106BF80F400000132013BB5E71E
:100C1C004FEA41037FEA226C18BF7FEA236C21D094
:100C2C0092EA030F04D092F0000F08BF08467047F9
:100C3C0090EA010F1CBF0020704712F07F4F04D1C7
:100C4C00400028BF40F00040704712F100723CBFDA
:100C5C0000F50000704700F0004343F0FE4040F404
:100C6C00000070477FEA226216BF08467FEA2363C2
:100C7C000146420206BF5FEA412390EA010F40F4AD
:100C8C00800070474FF0000304E000BF10F00043F9
:100C9C0048BF40425FEA000C08BF704743F09643E0
:100CAC0001464FF000001CE050EA010208BF7047FB
:100CBC004FF000030AE000BF50EA010208BF704782
:100CCC0011F0004302D5404261EB41015FEA010C97
:100CDC0002BF84460146002043F0B64308BFA3F18F
:100CEC008053A3F50003BCFA8CF2083AA3EBC25371
:100CFC0010DB01FA02FC634400FA02FCC2F1200290
:100D0C00BCF1004F20FA02F243EB020008BF20F0C6
:100D1C000100704702F1200201FA02FCC2F120022C
:100D2C0050EA4C0021FA02F243EB020008BF20EA21
:100D3C00DC7070474FF0FF0C1CEAD0521EBF1CEA4F
:100D4C00D15392EA0C0F93EA0C0F6FD01A4480EA3D
:100D5C00010C400218BF5FEA41211ED04FF0006326
:100D6C0043EA501043EA5111A0FB01310CF0004052
:100D7C00B1F5000F3EBF490041EAD3715B0040EA78
:100D8C00010062F17F02FD2A1DD8B3F1004F40EB48
:100D9C00C25008BF20F00100704790F0000F0CF01B
:100DAC00004C08BF49024CEA502040EA51207F3ADF
:100DBC00C2BFD2F1FF0340EAC250704740F40000BA
:100DCC004FF00003013A5DDC12F1190FDCBF00F0AB
:100DDC0000407047C2F10002410021FA02F1C2F159
:100DEC00200200FA02FC5FEA310040F1000053EAF5
:100DFC004C0308BF20EADC70704792F0000F00F043
:100E0C00004C02BF400010F4000F013AF9D040EA48
:100E1C000C0093F0000F01F0004C02BF490011F4DC
:100E2C00000F013BF9D041EA0C018FE70CEAD153DA
:100E3C0092EA0C0F18BF93EA0C0F0AD030F0004C5A
:100E4C0018BF31F0004CD8D180EA010000F000400E
:100E5C00704790F0000F17BF90F0004F084691F0CC
:100E6C00000F91F0004F14D092EA0C0F01D1420206
:100E7C000FD193EA0C0F03D14B0218BF084608D1CF
:100E8C0080EA010000F0004040F0FE4040F4000019
:100E9C00704740F0FE4040F4400070474FF0FF0CAC
:100EAC001CEAD0521EBF1CEAD15392EA0C0F93EAF3
:100EBC000C0F69D0A2EB030280EA010C49024FEA45
:100ECC00402037D04FF0805343EA111143EA1013FE
:100EDC000CF000408B4238BF5B0042F17D024FF4B6
:100EEC00000C8B4224BF5B1A40EA0C00B3EB510F91
:100EFC0024BFA3EB510340EA5C00B3EB910F24BF7A
:100F0C00A3EB910340EA9C00B3EBD10F24BFA3EBFE
:100F1C00D10340EADC001B0118BF5FEA1C1CE0D1C6
:100F2C00FD2A3FF650AF8B4240EBC25008BF20F079
:100F3C00010070470CF0004C4CEA50207F32C2BFCD
:100F4C00D2F1FF0340EAC250704740F400004FF06A
:100F5C000003013A37E792F0000F00F0004C02BF9B
:100F6C00400010F4000F013AF9D040EA0C0093F065
:100F7C00000F01F0004C02BF490011F4000F013BBF
:100F8C00F9D041EA0C0195E70CEAD15392EA0C0F27
:100F9C0008D142027FF47DAF93EA0C0F7FF470AF5F
:100FAC00084676E793EA0C0F04D14B023FF44CAFA2
:100FBC0008466EE730F0004C18BF31F0004CCAD137
:100FCC0030F000427FF45CAF31F000437FF43CAF73
:100FDC005FE700BF4FEA4002B2F1FE4F0FD34FF074
:100FEC009E03B3EB12620DD94FEA002343F000438A
:100FFC0010F0004F23FA02F018BF404270474FF038
:10100C000000704712F1610F01D1420205D110F0BE
:10101C00004008BF6FF0004070474FF00000704771
:10102C0042000ED2B2F1FE4F0BD34FF09E03B3EB46
:10103C00126209D44FEA002343F0004323FA02F072
:10104C0070474FF00000704712F1610F01D142025E
:10105C0002D14FF0FF3070474FF00000704700BFD7
:10106C000348044B834202D0034B03B1184770472B
:10107C00A4020020A402002000000000054806493C
:10108C00091A891001EBD171491002D0034B03B13D
:10109C0018477047A4020020A402002000000000A2
:1010AC0010B5064C237843B9FFF7DAFF044B13B1A4
:1010BC000448AFF300800123237010BDA802002068
:1010CC0000000000E4C2000808B5054B1BB105493F
:1010DC000548AFF30080BDE80840FFF7CFBF00BF65
:1010EC0000000000AC020020E4C2000838B5094D35
:1010FC000121287808F032F8074C0121207808F0FB
:10110C002DF80121287808F085F80121207808F0C5
:10111C0081F838BDC4020020C502002008B5034B7D
:10112C001970034B1870FFF7E1FF08BDC4020020D3
:10113C00C502002010B5244C0121207808F00EF8CF
:10114C000121207808F066F80121204B187808F06E
:10115C0061F81F4B59681F4B1A681F4BA3FB0232D7
:10116C00920C02EB82021A4B5B685B1A9A42FADC15
:10117C00154C0121207807F0F1FF0021207808F0B0
:10118C0049F8134B5968134B1A68134BA3FB0232E3
:10119C00920C02EB82020E4B5B685B1A9A42FADCF1
:1011AC0000210A4B187808F035F8094B5968094B9F
:1011BC001A68094BA3FB0232920C5200044B5B6879
:1011CC005B1A9A42FADC10BDC5020020C402002052
:1011DC00001000E0C000002083DE1B4310B500218E
:1011EC00244B187808F016F8234C0121207807F0CE
:1011FC00B5FF0021207808F00DF8204B5968204BE2
:10120C001A68204BA3FB0232920C02EB82021B4B9E
:10121C005B685B1A9A42FADC0121164B187807F0CE
:10122C00F9FF164B5968164B1A68164BA3FB023282
:10123C00920C02EB8202114B5B685B1A9A42FADC4D
:10124C000D4C0121207807F089FF0121207807F04F
:10125C00E1FF0A4B59680A4B1A680A4BA3FB02328E
:10126C00920C02EB8202054B5B685B1A9A42FADC29
:10127C0010BD00BFC4020020C5020020001000E019
:10128C00C000002083DE1B4310B5294C01212078BF
:10129C0007F064FF0121207807F0BCFF254B59684B
:1012AC00254B1A68254BA3FB0232920C5200214BA2
:1012BC005B685B1A9A42FADC0121214B187807F023
:1012CC00A9FF1C4B59681C4B1A681C4BA3FB023220
:1012DC00920C5200174B5B685B1A9A42FADC0021A5
:1012EC00134B187807F03AFF0024114B187807F0CD
:1012FC00B7FF38B10134E4B2FA2CF6D9FFF76EFF20
:10130C00012013E000210E4B187807F083FF094BE6
:10131C005968094B1A68094BA3FB0232920C520014
:10132C00044B5B685B1A9A42FADC002010BD00BFCC
:10133C00C5020020001000E0C000002083DE1B432B
:10134C00C402002010B500212C4B187807F062FF66
:10135C002B4C0121207807F001FF0021207807F0A9
:10136C0059FF284B5968284B1A68284BA3FB0232AB
:10137C00920C5200234B5B685B1A9A42FADC0121F7
:10138C001E4B187807F046FF1E4B59681E4B1A6807
:10139C001E4BA3FB0232920C02EB8202194B5B68D0
:1013AC005B1A9A42FADC0021144B187807F032FFD2
:1013BC00144B5968144B1A68144BA3FB0232920C51
:1013CC005200104B5B685B1A9A42FADC0C4C012100
:1013DC00207807F0C3FE0121207807F01BFF094B92
:1013EC005968094B1A68094BA3FB0232920C520044
:1013FC00044B5B685B1A9A42FADC10BDC4020020F5
:10140C00C5020020001000E0C000002083DE1B435A
:10141C0010B500212C4B187807F0FCFE2B4C012149
:10142C00207807F09BFE0121207807F0F3FE284B73
:10143C005968284B1A68284BA3FB0232920C5200B5
:10144C00234B5B685B1A9A42FADC01211E4B18781D
:10145C0007F0E0FE1E4B59681E4B1A681E4BA3FB8F
:10146C000232920C02EB8202194B5B685B1A9A42B5
:10147C00FADC0021144B187807F0CCFE144B596899
:10148C00144B1A68144BA3FB0232920C5200104BF3
:10149C005B685B1A9A42FADC0C4C0121207807F04D
:1014AC005DFE0121207807F0B5FE094B5968094B08
:1014BC001A68094BA3FB0232920C5200044B5B6876
:1014CC005B1A9A42FADC10BDC4020020C50200204F
:1014DC00001000E0C000002083DE1B4370B5054601
:1014EC00002443E03E4E0121307807F037FE012105
:1014FC00307807F08FFE3B4B59683B4B1A683B4BDF
:10150C00A3FB0232920C02EB8202364B5B685B1A35
:10151C009A42FADC0121364B187807F07BFE314BEE
:10152C005968314B1A68314BA3FB0232920C02EB17
:10153C0082022C4B5B685B1A9A42FADC00212C4B22
:10154C00187807F067FE6D00EDB2264B5968264BF4
:10155C001A68264BA3FB0232920C02EB8202214B3F
:10156C005B685B1A9A42FADC0134E4B2072C11D89E
:10157C0000211F4B187807F04DFE15F0800FB1D1EC
:10158C00174E0121307807F0E9FD0021307807F083
:10159C0041FEB0E7134B5968134B1A68134BA3FB6E
:1015AC000232920C52000F4B5B685B1A9A42FADCC7
:1015BC000B4C0121207807F0D1FD0121207807F098
:1015CC0029FE084B5968084B1A68084BA3FB0232DA
:1015DC00920C5200034B5B685B1A9A42FADC70BDAA
:1015EC00C5020020001000E0C000002083DE1B4379
:1015FC00C4020020F8B50646464B5968464B1A689B
:10160C00464BA3FB0232920C5200424B5B685B1AB6
:10161C009A42FADC424C0121207807F09FFD01210F
:10162C00207807F0F7FD3B4B59683B4B1A683B4B56
:10163C00A3FB0232920C5200364B5B685B1A9A4247
:10164C00FADC0024254610E0324B5968324B1A68FC
:10165C00324BA3FB0232920C02EB82022D4B5B68E5
:10166C005B1A9A42FADC0135EDB2072D36D800210F
:10167C002C4B187807F0CEFD264B5968264B1A6870
:10168C00264BA3FB0232920C02EB8202214B5B68CD
:10169C005B1A9A42FADC0121224B187807F0BAFD4A
:1016AC006400E4B21B4B59681B4B1A681B4BA3FB21
:1016BC000232920C02EB8202164B5B685B1A9A4266
:1016CC00FADC174F0021387807F048FD387807F01E
:1016DC00C7FD0028B8D044F00104B5E7B6B9FFF750
:1016EC0097FE00210F4B187807F094FD094B5968B1
:1016FC00094B1A68094BA3FB0232920C5200054BA2
:10170C005B685B1A9A42FADC2046F8BDFFF71AFEBA
:10171C00E7E700BF001000E0C000002083DE1B43A1
:10172C00C5020020C402002070B506460D461446C2
:10173C00FFF700FD06F0FE00FFF7D0FEFFF7A4FD5B
:10174C002846FFF7CBFEFFF79FFD2046FFF7C6FEAE
:10175C00FFF79AFDFFF742FD0A2007F0CDFD70BDA3
:10176C0038B504460D46FFF7E5FC04F0FE00FFF724
:10177C00B5FEFFF789FD2846FFF7B0FEFFF784FDA5
:10178C00FFF7D8FC44F00100FFF7A8FEFFF77CFD43
:10179C000020FFF72FFF0446FFF720FD204638BD41
:1017AC0008B5084B1B6803EB43035A010146064876
:1017BC00104408F033FF054B1860003018BF0120AF
:1017CC0008BD00BFC8020020D40200205C04002029
:1017DC0010B50A4B1C680A48620011194B01C1185C
:1017EC00084B1B685B1A0133224451010B44002146
:1017FC00184409F053FDFFF73FF910BDC802002053
:10180C00D40200205C040020F8B50546002418E042
:10181C00204E56F82470FFF7DBFF786156F8243021
:10182C00012283F82920002283F82A2025B956F8B2
:10183C002430012283F82B20012D13D0012D18D038
:10184C000134022C24DC134B53F824301878FFF7A6
:10185C00A7FF0028DCD10F4B53F82430002283F86B
:10186C002920EBE70B4B53F82430002283F82B2074
:10187C00E4E7084B53F824305878FFF791FF002821
:10188C00DED0044B53F82460FFF7A2FFF061D7E7DA
:10189C00F8BD00BF3800002008B54720FFF780FFD7
:1018AC0078B912490B6801335A4203F0030302F072
:1018BC00030258BF53420B600D4A1368013B13607F
:1018CC0008BDFFF785FFFFF785FB38B10128F7D17D
:1018DC000120FFF799FF00F06FFD04E00020FFF7F7
:1018EC0093FF00F069FD0028EAD0DAE7C802002077
:1018FC00D002002010B520E0224B1A685F2A0ADCC7
:10190C00214B1B6803EB43035901204B0B44002173
:10191C0099540132F2E71B4B00221A601C4A1368DF
:10192C000133136018490B6801335A4203F0030367
:10193C0002F0030258BF53420B60164807F004FD37
:10194C0000281DDD124B1B68032B19DC114807F016
:10195C0012FDC0B2104B18700A28CDD00D28CBD078
:10196C00084B1A685E2AC7DC074B1B68541C0549D8
:10197C000C6003EB43035901044B0B449854DCE714
:10198C0010BD00BF58040020CC020020D40200205F
:10199C00D0020020240A00205404002008B506229E
:1019AC000549064807F05CFD00F09CFC00F0FCFDCE
:1019BC0000F0C4F908BD00BF90D00300240A002039
:1019CC0010B5FFF797FF184B1B68002B0ADC07F0CC
:1019DC008FFC164BA3FB00235B09642202FB130351
:1019EC001BB110BDFFF758FFF1E711488269114B8D
:1019FC005A60C269DA6010498A695A61CA69DA6147
:101A0C000E4A94695C62D469DC6204695C63406967
:101A1C00D863086958644969D96411695965526970
:101A2C00DA6500F0D5FDDCE7D00200201F85EB5114
:101A3C0020060020440000204C06002078060020E0
:101A4C0038B54E4C2368D87807F030FC6368D878EA
:101A5C0007F02CFCA368D87807F028FC2E2007F0A0
:101A6C0055FB474C0A220146204608F0E4F8454D48
:101A7C002946204608F062F82F2007F047FB0A227F
:101A8C000146204608F0D7F82946204608F056F8BB
:101A9C00302007F03BFB0A220146204608F0CBF829
:101AAC00204608F061F8384B93F82930C3B100F0A8
:101ABC0095FC354B986193F82B3033B1012B15D134
:101ACC004FF47A7000F03EF910E02F4BD96900F01A
:101ADC00DDF92E4B1860FFF7A3FA00F033F905E09F
:101AEC002A4B2B4A1A60142000F02CF9294B93F83E
:101AFC002930C3B100F08CFC264B986193F82B3045
:101B0C0033B1012B15D14FF47A7000F02DF910E0A0
:101B1C00204BD96900F0DAF91F4B1860FFF780FAF7
:101B2C0000F022F905E01C4B194A1A60142000F051
:101B3C001BF91A4B93F82930C3B100F083FC174BF7
:101B4C00986193F82B3033B1012B15D14FF47A7087
:101B5C0000F01CF910E0114BD96900F0D7F9104BCB
:101B6C001860FFF75DFA00F011F905E00C4B084A1C
:101B7C001A60142000F00AF938BD00BF38000020AC
:101B8C00240A002028C3000820060020140000208E
:101B9C000000A0414C060020180000207806002010
:101BAC001C00002038B52C212620FFF7B7FAC022E4
:101BBC0008216C20FFF7B8FD2B4C2C49204607F070
:101BCC00BDFF2B4D2946204607F0B8FF08216C209D
:101BDC00FFF7C6FD0A220146204608F03BF82A21F1
:101BEC002B20FFF79BFAC02208216C20FFF79CFDED
:101BFC002049204607F0A2FF2946204607F09EFF09
:101C0C0008216C20FFF7ACFD0A220146204608F0A3
:101C1C0021F828212920FFF781FAC02208216C2005
:101C2C00FFF782FD1449204607F088FF294620461D
:101C3C0007F084FF08216C20FFF792FD0A22014671
:101C4C00204608F007F80C2007F05AFA04212E2041
:101C5C0007F084FA04212F2007F080FA04213020A9
:101C6C0007F07CFA38BD00BF240A00202CC3000802
:101C7C0028C3000834C300083CC30008012800D066
:101C8C0070474FF6FF739942FAD110B54FF4867036
:101C9C0008F08AF90446144B196807F097FD134BAA
:101CAC001C604FF4867008F07FF90446104B1968DD
:101CBC0007F08CFD0F4B1C604FF4867008F074F924
:101CCC0004460D4B196807F081FD0C4B1C604FF45A
:101CDC00867008F069F90446094B196807F076FD1F
:101CEC00084B1C6010BD00BF0000002060040020E9
:101CFC000400002064040020080000206804002078
:101D0C000C0000206C04002010B5094B1868FFF77C
:101D1C0087F9084C02220146206807F001FE0649AB
:101D2C00206807F032FD206807F004FD10BD00BFED
:101D3C0010000020600400204D1A000808B5FFF7C1
:101D4C00E3FF08BD08B5FEF79DFF054B1860FFF7D4
:101D5C0067F902220146034B186807F0E1FD08BD44
:101D6C00140000206404002008B5FEF78BFF054B1F
:101D7C001860FFF755F902220146034B186807F06B
:101D8C00CFFD08BD180000206804002008B5FEF740
:101D9C0079FF054B1860FFF743F902220146034B0C
:101DAC00186807F0BDFD08BD1C0000206C04002065
:101DBC0008B54FF6FF710120FFF760FF08BD00006A
:101DCC00012800D070474FF6FF739942FAD1F0B555
:101DDC0089B0002706971E4ED6E90023CDE90423CF
:101DEC001C4DD5E90023CDE902231B4CD4E900237B
:101DFC00CDE90023194B1A4A1A491B4800F05AFA2C
:101E0C000697D6E90023CDE90423D5E90023CDE9D3
:101E1C000223D4E90023CDE90023144B144A1549BD
:101E2C00154800F047FA0697D6E90023CDE90423BC
:101E3C00D5E90023CDE90223D4E90023CDE9002321
:101E4C000E4B0F4A0F49104800F034FA09B0F0BDA0
:101E5C00200000202800002030000020E805002091
:101E6C00E0050020D80500207004002000060020AA
:101E7C00F8050020F0050020E804002018060020DA
:101E8C0010060020080600206005002010B504464E
:101E9C000846FEF7A1FA094BC3E900012046FEF7FC
:101EAC009BFA074BC3E90001064800F056F8064BB5
:101EBC00D3E90001FEF7E0FD10BD00BFE8050020EE
:101ECC00D805002070040020E005002010B5044661
:101EDC000846FEF781FA094BC3E900012046FEF7DC
:101EEC007BFA074BC3E90001064800F036F8064BB5
:101EFC00D3E90001FEF7C0FD10BD00BF00060020B5
:101F0C00F0050020E8040020F805002010B5044678
:101F1C000846FEF761FA094BC3E900012046FEF7BB
:101F2C005BFA074BC3E90001064800F016F8064BB4
:101F3C00D3E90001FEF7A0FD10BD00BF180600207C
:101F4C0008060020600500201006002008B54FF69A
:101F5C00FF710120FFF734FF08BD2DE9F04F87B06A
:101F6C0090F87050002D00F08D800446836BD3E9FF
:101F7C000067016C32463B46D1E90001FEF7CCF814
:101F8C0080468946CDE90289D4E914233046394686
:101F9C00FEF7C2F882468B46CDE900AB42464B4673
:101FAC00D4E90801FEF770FAD4E91223FEF7B6F86B
:101FBC0006460F46C4E9126794F87180B8F1000F19
:101FCC000DD152465B46D4E90601FEF75DFA024696
:101FDC000B4630463946FEF79FF8C4E91201D4E9A6
:101FEC001267D4E91AAB52465B4630463946FEF7C7
:101FFC00DBFC68B1C4E912ABB8F1000F17D0DDE916
:10200C000223D4E90601FEF73FFA06460F4610E01C
:10201C00D4E91823CDE9042330463946FEF7A6FC53
:10202C000028E9D0DDE90423C4E91223E4E7002603
:10203C000027D4E91289DDE90023D4E90A01FEF76F
:10204C0023FA02460B4640464946FEF765F83246EF
:10205C003B46FEF763F806460F4602460B465046D3
:10206C005946FEF783FC50B9D4E918AB32463B46CF
:10207C0050465946FEF798FC08B9B246BB46E36B8E
:10208C00C3E900AB284607B0BDE8F08F2DE9F04757
:10209C00824614461D460022002320462946FEF7A0
:1020AC0065FC002846D100220023DDE90801FEF77B
:1020BC005DFC00283ED100220023DDE90A01FEF779
:1020CC0055FC002836D10C9BCAF83430012B14BFB8
:1020DC00002301238AF87130CAE90045DDE90823A1
:1020EC00CAE90223DDE90A23CAE90423DAF8580015
:1020FC00FEF750F900221D4BFEF7F0FA06460F468C
:10210C00CAE9064502460B46DDE90801FEF7BCF9B3
:10211C0080468946CAE9088932463B46DDE90A0110
:10212C00FEF7DCFA06460F46CAE90A67DAF83030E1
:10213C00012B01D0BDE8F08722462B460020002160
:10214C00FDF7EAFFCAE9060142464B460020002192
:10215C00FDF7E2FFCAE9080132463B4600200021A8
:10216C00FDF7DAFFCAE90A01E4E700BF00408F403F
:10217C002DE9F843044616461F46DDE90823304690
:10218C003946FEF707FC18BBC4E91867DDE90823DC
:10219C00C4E91A2394F87030D3B1E56BD5E9008902
:1021AC00DDE9082340464946FEF7FEFB90B1DDE928
:1021BC000823C5E90023D4E91267D4E91A894246F9
:1021CC004B4630463946FEF7EFFB70B1C4E9128935
:1021DC00BDE8F88332463B4640464946FEF7C6FB0F
:1021EC000028E8D0C5E90067E5E7D4E9188942463C
:1021FC004B4630463946FEF7B9FB0028E8D0C4E917
:10220C001289E5E738B504460D4690F87030D3B125
:10221C00036B8B4217D0D0E9062300200021FDF779
:10222C007BFFC4E90601D4E9082300200021FDF757
:10223C0073FFC4E90801D4E90A2300200021FDF74B
:10224C006BFFC4E90A01256338BD000010B586B0E8
:10225C000446C26381630364002380F8703013A3C7
:10226C00D3E90023CDE9002300220023FFF780FFF0
:10227C006423A3650F992046FFF7C4FF0E9B0493BC
:10228C00DDE90C23CDE90223DDE90A23CDE90023A6
:10229C00DDE908232046FFF7F9FE07F029F8A36DC6
:1022AC00C01A6064204606B010BD00BF00000000DC
:1022BC0000E06F40F0B589B00446149D07950125E8
:1022CC000695DDE91267CDE90467DDE91067CDE914
:1022DC000267DDE90E67CDE90067FFF7B7FF20461F
:1022EC0009B0F0BD08B50121052006F037FF01212A
:1022FC00022006F033FF0121062006F02FFF0121FA
:10230C00032006F02BFF0121072006F027FF0121F7
:10231C00042006F023FF134B58221A7041225A70E6
:10232C0005229A700222DA700F4B59221A7042223F
:10233C005A7006229A700322DA700C4B5A221A70C9
:10234C0043225A7007229A700422DA700121082065
:10235C0006F004FF0021082006F05CFFFFF722FCCA
:10236C0008BD00BF200600204C0600207806002087
:10237C00044B93F829301BB1024B93F82A00704799
:10238C000120704720060020044B93F829301BB124
:10239C00024B93F82A007047012070474C0600202E
:1023AC00044B93F829301BB1024B93F82A00704769
:1023BC00012070477806002008B5FFF7D9FF40B11F
:1023CC00FFF7E2FF40B1FFF7EBFF034610B9002324
:1023DC0000E00023184608BD0023FBE710B50024DD
:1023EC000020132C06DC074B53F82410FEF79AFB45
:1023FC000134F6E70449FEF751FD044B1968FEF76A
:10240C0099FC10BDA40600200000A041140000207F
:10241C0010B500240020132C06DC074B53F82410B5
:10242C00FEF780FB0134F6E70449FEF737FD044B59
:10243C001968FEF77FFC10BDF40600200000A041D7
:10244C001800002010B500240020132C06DC074BCC
:10245C0053F82410FEF766FB0134F6E70449FEF747
:10246C001DFD044B1968FEF765FC10BD44070020E8
:10247C000000A0411C0000202DE9F04385B004466B
:10248C000D46012807D01CB94FF6FF739D4264D04E
:10249C0005B0BDE8F0834FF6FF739942F3D1354B8D
:1024AC0003930A2302934FF02408CDF804802523CC
:1024BC000093314B40228021304801F029F9304EF5
:1024CC004FF0140986F80090002777702D49301DC5
:1024DC0007F03EFD4523337477742B4906EB090056
:1024EC0007F036FD86F820700C2386F8213027493A
:1024FC0006EB080007F02CFD86F8307086F831905A
:10250C00234906F1340007F023FD86F840701C23A4
:10251C0086F841301F4906F1440007F019FD86F892
:10252C00507086F851801C4906F1540007F010FDDC
:10253C0086F860702C2386F86130184906F1640027
:10254C0007F006FD86F87070342386F87130144954
:10255C0006F1740007F0FCFC95E7124C03E0103C0C
:10256C00201D07F0ABFC064B9C42F8D1034801F050
:10257C0009F98DE700127A00840800201408002065
:10258C009407002044C3000848C300084CC300084B
:10259C0050C3000854C3000858C300085CC30008AB
:1025AC0060C300081408002010B582B0074C01234A
:1025BC00009300220221204601F0E6F9204601F0AA
:1025CC00D1F9204601F020FD02B010BD1408002006
:1025DC0030B583B01B4C204601F0C4F901212046D4
:1025EC0001F01AF80123E382A38200240BE0164ABF
:1025FC002301D118D25C4B781248028243820431F9
:10260C0007F0BCFA0134072CF1DD00240B2C14DC90
:10261C000E4B13F8341003EBC4035A78094D29827E
:10262C006A825868FDF7D8FE0223009302460B46D7
:10263C00284607F0DFFB0134E8E7024801F0E4FC30
:10264C0003B030BD14080020940700204400002083
:10265C0008B54FF6FF710120FFF70EFF08BD08B556
:10266C004FF6FF710020FFF707FF08BD034603225A
:10267C000BE04FF6FF7119800E4959600121197258
:10268C009972002159720C33013A002AF1DA4FF693
:10269C00FF720286084BB3F91810A0F89010B3F92A
:1026AC001610A0F89210B3F91A30A0F89430A0F8D4
:1026BC009620704700093D00ACD20008012800D0DC
:1026CC00704708B54FF6FF73994200D008BD024819
:1026DC00FFF7CCFFFAE700BF840800203C2940D864
:1026EC0070B50024032C08D804EB44029300C35E9D
:1026FC00994211D00134E4B2F4E70024032C0BD836
:10270C0004EB440293001A46C35EB3F1FF3F02D0C0
:10271C000134E4B2F2E78152032C18D80D46064678
:10272C003C2904D0B0F99630B3F1FF3F10D0002310
:10273C0086F88530630019198A0032441146937A61
:10274C00527A496806F1340005F016FE358670BDE4
:10275C000121284606F002FD0121284606F05AFD0B
:10276C00E5E7704782B070B504AC84E80C003C29F6
:10277C0047D80023032B08D803EB4304A200825E46
:10278C00914211D00133DBB2F4E70023032B0BD8B9
:10279C0003EB4304A2001446825EB2F1FF3F02D069
:1027AC000133DBB2F2E70153032B2AD81C465D0040
:1027BC001D44AA000244059D55609DF819505572A0
:1027CC009DF818501572012D1FD003EB43039A008E
:1027DC000244002393720E4605463C2904D0B0F9FE
:1027EC009630B3F1FF3F17D0630019198A002A44C1
:1027FC001146937A527A496805F1340005F0BCFD14
:10280C002E86BDE8704002B0704703EB43039A007C
:10281C00024401239372DEE70121304606F09EFC50
:10282C000121304606F0F6FCDEE700003C2929D8F1
:10283C000023032B22D870B403E00133DBB2032B4B
:10284C0017D803EB4304A200825E8A42F5D15A00EA
:10285C00D418A50044194FF6FF7646530A4D65600F
:10286C0001252572A5721A44940004440022627258
:10287C00E3E74FF6FF73038670BC70474FF6FF73A8
:10288C0003867047704700BF00093D0070B586B0E5
:10289C008DF80F2000228DF817203C294DD81E46AC
:1028AC000D4604460B46B0F9302091421BD0002255
:1028BC00032A08D802EB42008100615E8B4202D0F1
:1028CC000132D2B2F4E7032A01D9002024E05300EC
:1028DC009818810021448B7A4A7A496804F13400B3
:1028EC0005F04AFD25863C2D04D0B4F99630B3F1A1
:1028FC00FF3F13D04FF47A73009301230DF11702AD
:10290C000DF10F0104F1340005F0DAFE3C2D01D07D
:10291C00012E08D09DF8170006B070BD0021284686
:10292C0006F078FCE6E7B4F99630B3F1FF3FF1D14D
:10293C000121284606F06EFCECE70020ECE708B518
:10294C004FF6FF710120FFF7B9FE08BD024B187856
:10295C00024B1B78C01A7047C3090020C109002024
:10296C00074B1B78074A1278934206D2064A126824
:10297C00D05C0133024A137070474FF0FF30704740
:10298C00C1090020C3090020D4090020064B1B7884
:10299C00064A1278934203D2054A1268D05C7047FB
:1029AC004FF0FF30704700BFC1090020C309002061
:1029BC00D409002008B5054B1B682BB10022044933
:1029CC000A7004490A70984708BD00BFCC09002062
:1029DC00C2090020C409002008B500230C4A13705A
:1029EC000C4A13700C4B186820B10C4B1A78002150
:1029FC0007F04EFD00230A4A13700A4A13700A4B63
:102A0C00186820B1094B1A78002107F041FD08BD68
:102A1C00C1090020C3090020D4090020D0090020DE
:102A2C00C2090020C4090020D8090020D1090020C7
:102A3C00F8B507460E4614461D4B1B78002B2ED0BE
:102A4C001C4B1D7815441C4B1B789D420CD91F2D1B
:102A5C0000D820252946194B186807F0C7FDA8B1E6
:102A6C00164A1060144B1D70144B1B689BB1144D0F
:102A7C00287822463146184407F0FCFC2B78234476
:102A8C00DBB22B700B4A137020460EE029460D4822
:102A9C0005F02AFEE8E701237B60002005E092B2F6
:102AAC00143006F033F808B10020F8BD2046FCE7DE
:102ABC00C0090020C4090020D1090020D809002039
:102ACC00C2090020D4C3000830B583B005468DF888
:102ADC0007101E4B1B78002B2DD01D4B1C7801347E
:102AEC001C4B1B789C420CD91F2C00D8202421464F
:102AFC00194B186807F07AFDA0B1174A1060154BF6
:102B0C001C70154B1B6893B1144A11789DF8070083
:102B1C00585413780133DBB213700D4A1370012033
:102B2C0003B030BD21460E4805F0DEFDE9E7012378
:102B3C006B600020F4E701220DF10701143005F061
:102B4C00E5FF08B90120EBE70020E9E7C009002008
:102B5C00C4090020D1090020D8090020C209002096
:102B6C00D4C30008002242604FF47A728260064A95
:102B7C000260064AB2F91C10A0F86C10B2F91E20C3
:102B8C00A0F86E20704700BFF4C30008ACD2000858
:102B9C00012800D0704708B54FF6FF73994200D05A
:102BAC0008BD0248FFF7DEFFFAE700BF1C09002052
:102BBC0070B504460D4616460023204A1370204A71
:102BCC001370204B186820B11F4B1A78002107F0A6
:102BDC005FFC00231D4A13701D4A13701D4B1868AF
:102BEC0020B11D4B1A78002107F052FC1B4B002220
:102BFC001A706B00DBB22374332D12D0002284F8D0
:102C0C00A22086B1012284F8A32004F114054FF40C
:102C1C0080421349284605F095FE94F8A23023B162
:102C2C0070BD0122EBE70022EDE70E49284605F0C6
:102C3C00E4FF0D49284605F0D7FFF1E7C109002054
:102C4C00C3090020D4090020D0090020C2090020AB
:102C5C00C4090020D8090020D1090020C009002097
:102C6C00A0860100C1290008852D000808B5C9B24D
:102C7C00FFF79EFF08BD08B50A463321FFF7F6FFA4
:102C8C0008BD08B5143005F021FF08BD054B012225
:102C9C001A709140044B19700023044A1370044AB3
:102CAC0013707047C0090020DC090020C209002005
:102CBC00C409002008B5C9B2FFF7E8FF08BD000041
:102CCC0010B590F8A230012B02D00424204610BD80
:102CDC00104B1B78104A126810490978143005F013
:102CEC003DFF90B1012812D004240B4B186820B181
:102CFC000B4B1A78002107F0CBFB0023094A137009
:102D0C00044A1370084A1370E0E70024EDE701242D
:102D1C00EBE700BFC4090020D8090020DC09002023
:102D2C00D1090020C2090020C009002008B50121EA
:102D3C00FFF7C6FF08BD00000C4B1B78834214D272
:102D4C0010B504461F2800D820242146084B1868CB
:102D5C0007F04CFC20B1064A1060044B1C7010BDEF
:102D6C002146044805F0C0FCF9E77047D009002063
:102D7C00D4090020D4C3000838B5144B1B682BB100
:102D8C00134B1A78134B1B789A4200D238BD0C4661
:102D9C0005460846FFF7D0FF0F4B1B687BB1224658
:102DAC0029460D4B186807F065FB094B00221A7079
:102DBC00084B1C70054B1B6820469847E6E740F211
:102DCC008311064805F090FCE9E700BFC809002014
:102DDC00C1090020C3090020D409002064C30008E5
:102DEC0008B54FF6FF710120FFF7D2FE08BD2DE9A3
:102DFC00F04F85B0074690461E46BDF93850BDF8D9
:102E0C003C300193A5EB0209B9F1000FB8BFC9F131
:102E1C000009A6EB010ABAF1000FB8BFCAF1000A0B
:102E2C00D14504DC2B4635461E4688461146A8453E
:102E3C0005DC33460E4619462B4645469846A8EB0C
:102E4C0005039BB202931CB28B1B002BB8BF5B42D9
:102E5C00009304EBD47464108E4202DA01230393C2
:102E6C0013E04FF0FF3303930FE03B68D3F810B03F
:102E7C00019B324629463846D847009BE41AA3B238
:102E8C001CB2002C0EDB01352DB2454511DCD145B1
:102E9C00EBDD3B68D3F810B0019B2A46314638462F
:102EAC00D847EAE7039A164436B2029AD41824B2E9
:102EBC00E9E705B0BDE8F08F704710B50468A46869
:102ECC00A04710BD30B583B00468246BBDF8185012
:102EDC000095A04703B030BD30B583B00468646B77
:102EEC00BDF818500095A04703B030BD30B583B085
:102EFC000468A46BBDF81C500195BDF918500095E1
:102F0C00A04703B030BD70472DE9F04182B00546B3
:102F1C000E4617461C460368DB6898472B68D3F8A7
:102F2C0020803C44A4B2013CBDF82030019324B273
:102F3C00009433463A4631462846C0472B685B6AB4
:102F4C002846984702B0BDE8F0812DE9F04182B0E7
:102F5C0005460E4617461C460368DB6898472B68E7
:102F6C00D3F8208033199BB2013BBDF8202001928D
:102F7C0000971BB23A4631462846C0472B685B6A1D
:102F8C002846984702B0BDE8F0812DE9F04F83B098
:102F9C0005460E4692461F46BDF93090BDF834806A
:102FAC000368DB6898473446F3199C420CDA2B68AB
:102FBC00D3F818B0CDF800804B465246214628462F
:102FCC00D847013424B2EFE72B685B6A2846984750
:102FDC0003B0BDE8F08F10B582B00268946B01911C
:102FEC00B0F90E200092B0F90C3000221146A04727
:102FFC0002B010BD2DE9F04782B007460E461446CC
:10300C00BDF92880BDF82C90994218D01D46424538
:10301C0028D00368DB6898473B68D3F820A0CDF82C
:10302C000490CDF800802B46224631463846D047D6
:10303C003B685B6A3846984702B0BDE8F08742456A
:10304C0002DC434690461C463B681D6BA4EB080310
:10305C009BB20133CDF800901BB242463146384644
:10306C00A847E9E7994201DC0D461E463B68D3F8B8
:10307C003480731B9BB20133CDF800901BB22246F7
:10308C0029463846C047D7E72DE9F04782B00446B9
:10309C000D4616469A46BDF92880BDF82C7003687B
:1030AC00DB6898472368D3F81C9000975346324648
:1030BC0029462046C8472368D3F81C9006EB080223
:1030CC0092B2013A0097534612B229462046C8479D
:1030DC002368D3F818900097434632462946204679
:1030EC00C8472368D3F8189005EB0A0189B2013957
:1030FC0000974346324609B22046C84723685B6AAC
:10310C002046984702B0BDE8F08701F003018176B4
:10311C00032910D8DFE801F002090209B0F90830E0
:10312C008381B0F90A30C3817047B0F90A308381CA
:10313C00B0F90830C38170477047000030B40024E8
:10314C0044600A4D0560018142818181C28184768F
:10315C00048244820122427602764FF6FF71C182CC
:10316C008182C2760477046230BC70471CC90008A7
:10317C002DE9F04F85B08046019100929B46BDF938
:10318C003860BDF93C300393BDF84030029316F122
:10319C00070A09D44FEAEA0AD8F80030DB6840463F
:1031AC00984700273D462EE00AF1070AF2E70AFB92
:1031BC0009F11A46002B12DB42F3CF020A441BF82A
:1031CC00025015F0800F0CD1013423B2B34213DA44
:1031DC009CB214F0070FEAD06D00EDB2F1E7DA1DE6
:1031EC00EAE7D8F800301F69019BE118029B009AAE
:1031FC0009B24046B847E7E74F4601373FB2009B5C
:10320C0001331BB20093039B9F4202DA0023B946A1
:10321C00DCE7D8F800305B6A4046984705B0BDE85B
:10322C00F08F00002DE9F04F8FB082460691079287
:10323C009946BDF860300893BDF864809DF868B07D
:10324C009DF86C300493026A3AB3137AA9EB03032A
:10325C00DBB2506800EBC3011268059230F8337092
:10326C0091F80280CB780B9391F905300C9391F97E
:10327C0006300D93BBF1010F40F2D680BDF9303012
:10328C000993BDF934300A93DAF80030DB68504604
:10329C00984700231D4699461CE1B0F90C308B422F
:1032AC0040F32481B0F90E300798834240F31E811D
:1032BC000BEB4B0253000B44002B40F31781049B88
:1032CC0000EBC303002B40F311819AF81C3033B987
:1032DC00B9F1AF0F03D909F101095FFA89F9DAF8ED
:1032EC000030DB68504698470027CDF81490CDF895
:1032FC000C80DDF82080049E5BE0DAF80030D3F817
:10330C001480069B09FB0B31079B04FB06320197CB
:10331C0000965B4612B209B25046C047013464B203
:10332C006B08072C41DC1D4613F0010F13D0BBF1C9
:10333C00010FE2D1012EE0D1DAF80030D3F8108081
:10334C00069B09EB0301079BE2183B4612B209B23C
:10335C005046C047E2E7039B9F42DFD0BBF1010F11
:10336C0012D0DAF80030D3F81480069B09FB0B312D
:10337C00079B04FB0632039B019300965B4612B23B
:10338C0009B25046C047C9E7012EEAD1DAF800303D
:10339C00D3F81080069B09EB0301079BE218039BF3
:1033AC0012B209B25046C047B8E7B8464F4601378B
:1033BC007FB2042F09DC059B03EB83033B444D4A8E
:1033CC00D35C0024B9464746ABE7DDF80C80089B7C
:1033DC00434513D0BBF1010F16D0DAF800305C690D
:1033EC000BEB8B01069B1944CDF80480049BDB008E
:1033FC0000935B46079A09B25046A047DAF80030B2
:10340C005B6A5046984771E0049B012BE5D1DAF8D2
:10341C0000309C6906990531CDF800800823079A85
:10342C0009B25046A047E9E7049B012B3FF626AFB3
:10343C0000230A93099327E715F0800F10D16D0034
:10344C00EDB20134E4B2334644453DD25E1CF6B2D3
:10345C0013F0070FF0D17B1C059AD55D9FB2EBE7FB
:10346C00BBF1010F18D0DAF80030D3F81490099B97
:10347C001919069B01FB0B310A9B039A9A18049BA2
:10348C00079802FB03020898019000935B4612B266
:10349C0009B25046C847D2E7049B012BE3D1DAF8B6
:1034AC000030D3F810900C9B069A991889B22144DD
:1034BC000D9B079A9A1892B2039B1A44089B12B25E
:1034CC0009B25046C847BAE7DDF80C9009F1010281
:1034DC005FFA82F90B9A914503D20024CDF80C9037
:1034EC00B2E7DAF800305B6A504698470FB0BDE897
:1034FC00F08F00BF14C40008F0B585B00446036A11
:10350C00002B3FD00A2974D00D297AD01A7A914217
:10351C0077D3587A884274D38A1AD2B25D6805EB95
:10352C00C205AA78E87832B328B395F90500E67E8F
:10353C008EB1B4F91070267E024402FB0672B4F907
:10354C000C00824207DD00222282627E987A638A16
:10355C0000FB02336382637E0393237E0293E38A30
:10356C000193A38A00930B46B4F91220B4F91010FE
:10357C002046FFF757FE2B79217E228A01FB03237D
:10358C0023823EE00A292DD00D293AD0C37E8BB17F
:10359C00B0F91020037E03EB430358001318B4F961
:1035AC000C20934206DD00232382627E638A03EBA8
:1035BC00C2036382637E0393237E0293E38A0193A7
:1035CC00A38A00930B46B4F91220B4F910102046CC
:1035DC00FFF728FE237E03EB43035A00238A1A4489
:1035EC0022820EE00382427E438A03EBC2034382B3
:1035FC0007E000220282427E997A438A01FB023361
:10360C004382012005B0F0BD0B4601B901230376BE
:10361C0002B901224276704708B50A46FFF7F4FF5B
:10362C0008BD002972DB10B4B0F90C408C4213DDDC
:10363C00002A11DBB0F90E4094420DDD847E022C81
:10364C0013D0032C1CD0012C08D0012B1FD01CB282
:10365C00002C31D0022B45D010BC70470489A41A21
:10366C00A4B2013C0A4621B2EFE70489611A89B27F
:10367C00013909B24489A21A92B2013A12B2E4E7B2
:10368C004489641AA4B2013C114622B2DDE7C46A33
:10369C001346002A0EDB43F3CF03B0F9080000FBFE
:1036AC00031102F00702012303FA02F2635C1343D5
:1036BC006354D1E7D31DEEE7C46A1346002A0FDB2F
:1036CC0043F3CF03B0F9080000FB031102F007022B
:1036DC00012303FA02F2635C23EA02036354BBE79F
:1036EC00D31DEDE7C46A1346002A0DDB43F3CF0369
:1036FC00B0F9080000FB031102F00702012393400C
:10370C00625C5A406254A7E7D31DEFE77047000094
:10371C0030B585B004461D46FFF710FD174B2360EE
:10372C0055B365620023A362E362FF2284F8332061
:10373C0084F834209DF9202084F835209DF9282028
:10374C0084F836209DF9242084F837200B9A0292B5
:10375C0001228DF80E208DF80C208DF80D3001AB68
:10376C0003CB6066A16619889B78A4F86C1084F86A
:10377C006E30204605B030BD014DD2E70CCE0008AE
:10378C008408002010B50446034B0360C06A08B1DE
:10379C0006F068FE204610BD0CCE000838B5044675
:1037AC000D46806A88B194F93010FFF783FAA06A4D
:1037BC0003681B6800219847A06A03681B682946A8
:1037CC009847A06AFFF7B2FA38BD226C1368216DD6
:1037DC0023EA01031360606A28B101232A463C21C5
:1037EC00FFF754F8F0E7802311E0A16B0A68A06C96
:1037FC0022EA00020A60E16B0A68E06C02430A608C
:10380C00E16B0A68E06C22EA00020A605B08002B9C
:10381C00DAD01D42E9D0A16B0A68A06C02430A60A1
:10382C00E9E770B586B004460D46806A70B1A16DAB
:10383C00FFF727FA05B3A7212046FFF7AFFFA06AD1
:10384C00E0B1E16DFFF71DFA06B070BD666A66B1B6
:10385C0003AB04F1640207CA83E80700059A0092DF
:10386C000CCB3C213046FEF77DFF626C1368616D1A
:10387C0023EA01031360DDE7A621DDE7626C136820
:10388C00616D0B431360606A0028DDD03C21FEF7AC
:10389C00CDFFD9E72DE9F04104460D461746806A65
:1038AC0068B394F93010FFF705FAA06A03681B6837
:1038BC0000219847012616E0A06AFFF737FA94F921
:1038CC003010A06AFFF7F6F9A06A03681B680021A4
:1038DC0098470126A06A03681B6815F8011B9847D6
:1038EC000136F6B247467B1E5FFA83F817B11F2EDE
:1038FC00F0D9E1E7A06AFFF719FABDE8F081226C74
:10390C001368216D23EA0103136000E037467E1E25
:10391C00F6B2002FF1D015F8012B606A20B101230B
:10392C003C21FEF7B3FFF1E7802311E0A06B0168A7
:10393C00A76C21EA07010160E16B0868E76C38436A
:10394C000860E16B0868E76C20EA070008605B0818
:10395C00002BDBD01A42E9D0A06B0168A76C39436D
:10396C000160E9E708B50346C06AB3F90820B3F96A
:10397C000A30073306D4DB1003FB02F2002106F0F9
:10398C0087FD08BD0733F6E72DE9F04188B0044602
:10399C000F4615461E469DF83880C36A43B3204631
:1039AC00FFF7E0FFB4F90A20202A33DDB4F9081040
:1039BC00523901EBD171403A02EBD27201230293DE
:1039CC004023019352230093BE4B42F34F0241F329
:1039DC004F012046FFF7CCFB84F83170A06A002819
:1039EC007AD085BBB4F90A30202B2AD03D252BE0A8
:1039FC00B0F90800B4F90A30073309D4DB1003FB23
:103A0C0000F006F027FDE0620028C8D1002094E108
:103A1C000733F3E7B4F90810733901EBD171203A8D
:103A2C0002EBD272012302932023019373230093A0
:103A3C00A54B42F34F0241F34F012046FFF798FB91
:103A4C00CAE73C2500E06DB284F83050B8F1000FA5
:103A5C003ED126B194F93700002880F2EB80A06AA1
:103A6C00002800F00081A16DFFF70BF904229749A3
:103A7C002046FFF70FFFB4F90A100139C9B22046EE
:103A8C00FFF78CFE042292492046FFF703FF94F9BE
:103A9C003130012B00F0FD8014212046FFF77EFE13
:103AAC0004228C492046FFF7F5FE8F2384F8603002
:103ABC00A368894A934200F0178102F500129342E1
:103ACC0000F0E980854A934200F0F08002250CE179
:103ADC000021FFF7D0F8BCE7012194F9350005F07F
:103AEC003DFB012194F9360005F038FB94F9353093
:103AFC003B2B0AD87A4A32F91320C2F30312042A58
:103B0C0020D8784951F8222000E000220C3222649F
:103B1C003B2B19D8724A32F9133003F00F020123F0
:103B2C0093409BB2236594F936203B2A0FD86C4BFB
:103B3C0033F91230C3F30313042B23D8694951F81A
:103B4C00233005E00022E1E74FF40043EAE70023CD
:103B5C000C3363643B2A17D8614931F9122002F007
:103B6C000F0101228A4092B2626519680A431A60F9
:103B7C00606A60B1B8F1000F3FF46BAF3C21FEF707
:103B8C00ADFD66E70023E3E74FF40042ECE70121CB
:103B9C0094F9330005F0E2FA012194F9340005F0B0
:103BAC00DDFA94F933303B2B0AD84D4A32F9132005
:103BBC00C2F30312042A20D84A4951F8222000E00B
:103BCC0000220C32A2633B2B19D8454A32F9133030
:103BDC0003F00F02012393409BB2A36494F93420A9
:103BEC003B2A0FD83E4B33F91230C3F30313042B8B
:103BFC001BD83C4951F8233005E00022E1E74FF493
:103C0C000043EAE700230C33E3633B2A0FD8344923
:103C1C0031F9122002F00F0101228A4092B2E264C3
:103C2C00196821EA02021A6013E70023EBE74FF44C
:103C3C000042F4E7012105F091FA012194F93700D3
:103C4C0005F0E8FA012005F057FB002194F9370044
:103C5C0005F0E0FA0A2005F04FFB012194F937003A
:103C6C0005F0D8FAFBE6656A65B105AB04F16402B0
:103C7C0007CA83E80700079A00920CCB3C21284620
:103C8C00FEF770FD626C1368616D23EA010313602B
:103C9C00ECE6102101E794F93130012B04D0CF234D
:103CAC0084F86030122520E09F23F9E794F9313035
:103CBC00012B04D0AF2384F86030022515E01023CB
:103CCC00F9E700BF64C9000824CC000864CE0008E2
:103CDC0068CE00086CCE0008800020006000100048
:103CEC00ACD20008AC0000200225DA212046FFF7F8
:103CFC0055FD29462046FFF751FD81212046FFF74F
:103D0C004DFD94F860102046FFF748FDD921204660
:103D1C00FFF744FD94F93130012B11D0F1212046ED
:103D2C00FFF73CFD06220E492046FFF7B3FDA06AC3
:103D3C0040B1E16DFEF7A5FF012008B0BDE8F081B0
:103D4C002221ECE7626C1368616D0B431360606AAF
:103D5C0020B13C21FEF76AFD0120EEE70120ECE7E3
:103D6C0070CE0008F0B4BDF81040002A24DBB0F986
:103D7C000A50954220DD002920DB0F465E18B0F971
:103D8C000850AE4202DDABB25B1A1BB2002B13DD46
:103D9C00C16A1046002A15DBC01000FB05752944CA
:103DAC0002F00702012000FA02F2D2B284420BD0D8
:103DBC0020B2A8B1022C21D0F0BC70470B441BB22E
:103DCC000021DAE7D01DE7E7581E00B2002BF3D034
:103DDC000C4614F8013B13430B7003462146F3E7E2
:103DEC00D243D2B2581E00B2002BE5D00C4614F8C8
:103DFC00013B13400B7003462146F3E7581E00B2FB
:103E0C00002BD9D00C4614F8013B53400B700346E1
:103E1C002146F3E7F0B5BDF8144000294EDBB0F9AC
:103E2C0008508D424ADD002A49DBD718B0F90A60E8
:103E3C00B74202DDB3B29B1A1BB2002B3EDDD2B2ED
:103E4C00DBB2C76AD60805FB0616BD1912F00702CD
:103E5C0017D0C2F10802D2B2314911F802C0934214
:103E6C0006D2A2EB030EFF2141FA0EF101EA0C0C73
:103E7C00012C28D021B261B3022C30D0B0F908103B
:103E8C000D449A421AD89B1ADBB2072B0BD9022C81
:103E9C002BD0ACB3FF212970B0F908201544083B96
:103EAC00DBB2072BF7D84BB103F007031D4AD35CE9
:103EBC00012C27D022B24AB3022C2CD0F0BD1344D3
:103ECC001BB20022B1E7B95D4CEA010C07F806C041
:103EDC00D4E7B95D21EA0C0C07F806C0CEE7B95D52
:103EEC008CEA010C07F806C0C8E72A78D2432A707E
:103EFC00B0F908201544083BDBB2072BF5D8D2E704
:103F0C000021C8E72A7813432B70D7E72A7822EAD6
:103F1C0003032B70D2E72A7853402B70CEE700BFF7
:103F2C0054CE00085CCE000830B583B0BDF81850F4
:103F3C00847E022C12D0032C1FD0012C06D000241E
:103F4C0034B30095FFF766FF03B030BD0489A41AA3
:103F5C00A4B2013C0A4621B20124F1E70489611A9A
:103F6C0089B2013989B24489A21A92B2013A12B2C9
:103F7C00C91A013109B20024E2E74489641AA4B2D7
:103F8C00013CA4B2E41A0134114622B20124D7E751
:103F9C000095FFF7E7FED7E730B583B0BDF81850B2
:103FAC00847E022C15D0032C22D0012C06D00024A8
:103FBC0034B30095FFF7D6FE03B030BD0489A41AC4
:103FCC00A4B2013CA4B2E41A01340A4621B2012481
:103FDC00EEE70489611A89B2013909B24489A21A3F
:103FEC0092B2013A92B2D21A013212B20024DFE735
:103FFC004489641AA4B2013C114622B20124D7E7C9
:10400C000095FFF707FFD7E72DE9F04186B004468E
:10401C00806A38B3A16DFEF734FE05225149204663
:10402C00FFF738FCB4F908100139C9B22046FFF784
:10403C00B5FBB4F90870B4F90A30073328D4DB1097
:10404C0007FB03F39FB2E56AA06A00284CD094F9F1
:10405C003010FEF72FFEA06A03681B6840219847BA
:10406C00012620E0656A65B103AB04F1640207CA5E
:10407C0083E80700059A00920CCB3C212846FEF7FA
:10408C0071FB626C1368616D23EA01031360C4E772
:10409C000733D4E7A06A03681B6815F8011B98471F
:1040AC000136F6B247467B1E1FFA83F887B11F2EE6
:1040BC00F0D9A06AFEF73AFE94F93010A06AFEF728
:1040CC00F9FDA06A03681B68402198470126E1E7C7
:1040DC00A06AFEF72BFEA06A002837D0E16DFEF730
:1040EC00D0FD06B0BDE8F081226C1368216D0B4346
:1040FC00136000E037467E1EB6B2002FEBD015F8E9
:10410C00012B606A20B101233C21FEF7BFFBF1E7D4
:10411C00802311E0A06B0168A76C21EA0701016004
:10412C00E06B0168E76C39430160E06B0168E76C98
:10413C0021EA070101605B08002BDBD01A42E9D0B1
:10414C00A06B0168A76C39430160E9E7626C1368E6
:10415C00616D0B431360606A0028C2D03C21FEF7EE
:10416C0065FBBEE778CE000800B595B002230A9334
:10417C0001220E9210220F921193002312934FF4EE
:10418C00601313930AA801F0B1FFC8B90F2305936C
:10419C0002210691002307934FF480620892099341
:1041AC0005A802F0E3F980B9022301934FF4004310
:1041BC00039301A802F0D4FA60B915B05DF804FBC2
:1041CC008721074804F090FAE0E79321044804F0B3
:1041DC008BFAE9E79921024804F086FAEDE700BF73
:1041EC0034D20008002103E00B4B5B5843500431E0
:1041FC000A480B4B42189A42F6D30A4A02E00023B3
:10420C0042F8043B084B9A42F9D304F06FFA06F0DB
:10421C00FDF805F0B9FE7047E0D80008000000205A
:10422C00A4020020A8020020980C0020FEE708B58C
:10423C0003F02CFD08BD70470D2811D800F12E039A
:10424C003B2B8CBF002301238BB10D280DD800F123
:10425C002E020E4B33F91230B3F1FF3F0DD108E0B3
:10426C003B288CBF00230123EEE70246F1E74FF019
:10427C00FF333D2803D03E2804D01846704740F247
:10428C000113FAE74FF48173F7E700BFACD20008D3
:10429C007047000010B504460E4B18784FF47A7333
:1042AC00B3FBF0F30C4A1068B0FBF3F000F070FCB9
:1042BC0068B90F2C01D901200AE0002221464FF0E9
:1042CC00FF3000F011FC054B1C60002000E00120C9
:1042DC0010BD00BFA4000020C0000020A8000020DA
:1042EC0008B5074A136843F010031360032000F06D
:1042FC00E9FB0020FFF7CEFFFFF7CAFF002008BD47
:10430C0000200240034A1168034B1B780B441360D6
:10431C00704700BF840C0020A4000020014B1868DB
:10432C00704700BF840C0020F0B583B005460C46E6
:10433C0000230193FFF7F2FF2B689A6812F4807F39
:10434C0023D106465A6812F4807F03D1DB6A13F43A
:10435C00700F24D04B4B1F68022002F08BFAB7FB76
:10436C00F0F02B681969484A11422FD1D96802F133
:10437C005C4211422AD11969444A114239D1DA6896
:10438C00434B1A4237D029273AE0AB6A43F020035B
:10439C00AB62002385F82430012003B0F0BD2B68FC
:1043AC001B6813F0020F48D1B4F1FF3FF7D024B1D2
:1043BC00FFF7B4FF801BA042F1D9AB6A43F00403B2
:1043CC00AB62002385F824300320E6E719692F4AF5
:1043DC00114204D1D96802F16E4211420DD0196913
:1043EC002C4A0A405AB9DA682A4B13405BB1FC27B5
:1043FC0006E0292704E0142702E0542700E0FC27FC
:10440C0007FB00F704E05427FAE7019B0133019303
:10441C00019BBB4211D2B4F1FF3FF6D024B1FFF7A0
:10442C007DFF801BA042F0D9AB6A43F00403AB6262
:10443C00002385F824300320AFE72B686FF01202BD
:10444C001A60AB6A43F40073AB622B689B6803F48D
:10445C006023B3F5602F01D000209EE72B7B6BB956
:10446C00AB6A23F48073AB62AB6A13F4805F07D141
:10447C00AB6A43F00103AB6200208EE700208CE7AF
:10448C0000208AE7C000002024499224922449127B
:10449C0092244900499224000368D86C70470000AC
:1044AC0030B482B00023019390F82430012B00F03B
:1044BC008B800246012380F824304B68062B29D8C8
:1044CC000568686B03EB8303053B1F249C4020EAC3
:1044DC0004000C6804FA03F303436B630B68092BA9
:1044EC0038D91568E86803EB43031E3B07249C404E
:1044FC0020EA04008C6804FA03F30343EB600B68B6
:10450C00103B012B34D90020002382F8243002B058
:10451C0030BC70470C2B0ED80568286B03EB83035B
:10452C00233B1F249C4020EA04000C6804FA03F38C
:10453C0003432B63D2E70568E86A03EB8303413B33
:10454C001F249C4020EA04000C6804FA03F3034384
:10455C00EB62C3E71568286903EB430307249C400F
:10456C0020EA04008C6804FA03F303432B61C6E7CA
:10457C0013681648834205D0936A43F02003936274
:10458C000120C1E7986810F4000F1BD1986840F423
:10459C00000098600B68102B01D00020B4E70C4B86
:1045AC001B680C49A1FB03139B0C03EB8303590001
:1045BC00019102E0019B013B0193019B002BF9D17E
:1045CC000020A1E700209FE70220A0E70024014083
:1045DC00C000002083DE1B43806A704730B583B077
:1045EC000023019303689A6812F0010F2DD19A6889
:1045FC0042F001029A60164B1B68164AA2FB032379
:10460C009B0C0193019B1BB1019B013B0193F9E7AF
:10461C000446FFF783FE054623689B6813F0010FE1
:10462C0011D1FFF77BFE401B0228F5D9A36A43F09A
:10463C001003A362E36A43F00103E362002384F8EE
:10464C002430012002E0002000E0002003B030BD47
:10465C00C000002083DE1B4390F82430012B6BD06C
:10466C0010B50446012380F82430FFF7B7FF02464B
:10467C0000285CD1A36A23F4407323F0010343F4B4
:10468C008073A36221682E4B994228D0A36A23F42D
:10469C008013A3624B6813F4806F05D0A36A23F4D4
:1046AC00405343F48053A362A36A13F4805F2CD06D
:1046BC00E36A23F00603E362002384F824302368C2
:1046CC006FF0020119602368996801F46021B1F55B
:1046DC00602F1DD0996841F4801199602AE0A3F5F0
:1046EC0080635B6813F4702FD0D0A36A43F48013FB
:1046FC00A362144B5B6813F4806FD5D0A36A23F4C8
:10470C00405343F48053A362CEE70023E362D3E724
:10471C000B498B4204D0996841F4A001996009E0DF
:10472C00A1F58061496811F4702FD3D1F3E7002310
:10473C0084F82430104610BD02221046704700BF8A
:10474C00002801400024014038B503689A6812F033
:10475C00010F01D1002038BD04469A6822F00102F5
:10476C009A60FFF7DBFD054623689B6813F0010F89
:10477C000ED0FFF7D3FD401B0228F5D9A36A43F0F6
:10478C001003A362E36A43F00103E3620120E2E752
:10479C000020E0E700287FD038B50446836A002B60
:1047AC0033D02046FFF7D0FFA36A13F010036DD16E
:1047BC0000286BD1A26A22F4885222F0020242F045
:1047CC000202A2626268E1690A43257B42EA450261
:1047DC00A168B1F5807F21D001291CD0217D012950
:1047EC001FD02568696821F469410B436B6021680F
:1047FC008D682A4B2B4013438B60A368B3F5807FE5
:10480C0020D0012B1ED000211FE0C36280F8243081
:10481C0005F01AFCC5E74FF48073DFE74FF48073A3
:10482C00DCE735B9A169013943EA413343F400634C
:10483C00D7E7A16A41F02001A162E16A41F00101D0
:10484C00E162CEE72369013B19052568EB6A23F485
:10485C0070030B43EB6223689968114B0B409A422F
:10486C000BD0A36A23F0120343F01003A362E36A94
:10487C0043F00103E36201200DE00023E362A36A2D
:10488C0023F0030343F00103A36204E0A36A43F0A3
:10489C001003A362012038BD01207047FDF7E1FF32
:1048AC00FE0E1FFF38B5002874D00446836A43F00F
:1048BC0002038362FFF748FF054620B1002384F80A
:1048CC002430284638BD23686FF01F021A60226816
:1048DC005168314B0B405360226891682F4B0B4051
:1048EC0093602268D36803F07F43D3602268136916
:1048FC0003F0404313612268536923F47F6323F070
:10490C000F0353612268936923F47F6323F00F0331
:10491C0093612268D36923F47F6323F00F03D3617F
:10492C002268136A23F47F6323F00F031362226857
:10493C00536A23F47F6323F00F0353622268936A54
:10494C0023F47F6323F00F0393622268D36A03F08E
:10495C007F43D3622268D36A03F07F43D362226819
:10496C00136B03F0404313632268536B03F0404313
:10497C0053632268936B9B0D9B0593632268936B27
:10498C009B0D9B059363204605F094FB0023E3628B
:10499C00A36293E7012594E700003FFFF00601FFB7
:1049AC0090F82430012B15D010B50446012380F863
:1049BC002430FFF7C9FE024638B9A36A23F48853A2
:1049CC0023F0010343F00103A362002384F8243095
:1049DC00104610BD022210467047000070B582B020
:1049EC000023019390F82430012B67D00446012357
:1049FC0080F82430FFF7A8FE054628B1002384F880
:104A0C002430284602B070BDA36A23F4885323F0E7
:104A1C00020343F00203A362294B1E68022001F03B
:104A2C0029FFB6FBF0F040000190019B1BB1019BEC
:104A3C00013B0193F9E72046FFF7D0FD226893680C
:104A4C0043F008039360FFF769FC064623689A68F5
:104A5C0012F0080F0FD0FFF761FC801B0A28F5D964
:104A6C00A36A23F0120343F01003A362002384F81B
:104A7C0024300125C5E79A6842F004029A60FFF7DA
:104A8C004DFC064623689B6813F0040F0FD0FFF70C
:104A9C0045FC801B0A28F5D9A36A23F0120343F0C6
:104AAC001003A362002384F824300125A9E7A36A2C
:104ABC0023F0030343F00103A3629FE70225A0E761
:104ACC00C0000020074AD36823F4E0631B041B0CCE
:104ADC00000200F4E060184340F0BF6040F4003086
:104AEC00D060704700ED00E030B4174BDB68C3F3C7
:104AFC000223C3F10704042C28BF04241D1D062D1A
:104B0C0001D9033B00E000234FF0FF3505FA04F414
:104B1C0021EA0401994005FA03F322EA030319433D
:104B2C00002809DB0901C9B200F1604000F56140C1
:104B3C0080F8001330BC704700F00F000901C9B2B7
:104B4C00024B1954F6E700BF00ED00E014ED00E055
:104B5C00002807DB00F01F02400901239340024AA2
:104B6C0042F82030704700BF00E100E000280CDB69
:104B7C0000F01F024009012393402030034A42F801
:104B8C002030BFF34F8FBFF36F8F704700E100E011
:104B9C000138B0F1807F0AD2064B5860064AF021EA
:104BAC0082F823100020986007221A6070470120B9
:104BBC00704700BF10E000E000ED00E0002808DBCB
:104BCC0000F01F024009012393406030014A42F873
:104BDC002030704700E100E0704708B5FFF7FCFF9C
:104BEC0008BD000008B590F82130022B03D0042337
:104BFC008363012008BD0268136823F00E03136061
:104C0C000268136823F0010313600368194A934286
:104C1C0014D0143293421FD0143293421ED014324B
:104C2C0093421ED0143293421ED01432934202D0BF
:104C3C004FF0807203E04FF4801200E001220E4B23
:104C4C005A60012380F82130002380F82030436B18
:104C5C006BB198470020CDE71022F0E74FF480723B
:104C6C00EDE74FF48052EAE74FF48032E7E700209B
:104C7C00C0E700BF080002400000024090F821008D
:104C8C007047000008B5054B5B69034200D108BDB5
:104C9C00024B586105F09CFBF9E700BF0004014092
:104CAC0090F83E30DBB2402B10D00369B3F5804F47
:104CBC001BD0036D002B3CD1436CC3F3C8130268AB
:104CCC0003F0060343F0F00313617047036D2BB937
:104CDC00436C026803F0FE0313617047436C026877
:104CEC0043F00103DBB21361704790F83D30DBB247
:104CFC00212B0FD0436C026843F00103DBB213612C
:104D0C00436B6BB19B6A7BB10268536843F40063DD
:104D1C0053607047436C026803F0FE031361EFE7C6
:104D2C00826B002AEED107E0836B9B6A002BEBD1E0
:104D3C0002E0036D012B00D07047436CC3F3C81322
:104D4C00026803F0060343F0F1031361F4E7436CCC
:104D5C000268DBB21361436B3BB19B6A4BB10268D7
:104D6C00536843F4006353607047826B002AF4D19C
:104D7C00FAE7836B9B6A002BF1D1F5E710B48DB089
:104D8C0090F83E30DAB2C16A046B90F83D30DBB279
:104D9C00222B0AD000230B9303685A690B929B6950
:104DAC000B930B9B0DB010BC7047036D0BB9402AD5
:104DBC0017D0036D1BB90369B3F5404F19D0438D60
:104DCC009BB2002B25D1039303685A6903929A690D
:104DDC000392039A1A6842F400721A600023036566
:104DEC00E0E7019303685A6901929B690193019B67
:104DFC00D8E70023029303685A6902929A690292D7
:104E0C00029A1A6842F480721A60036D01330365CA
:104E1C00C8E7438D9BB2012B25D0438D9BB2022B4F
:104E2C007BD00268136843F48063136003685A688C
:104E3C0012F4006F0ED011F5803F07D0012905D078
:104E4C00082903D0102901D0202903D15A6842F433
:104E5C0080525A6000230A9303685A690A929B692C
:104E6C000A930A9BBAE711F5803F11D0082934D078
:104E7C00202932D0122C2ED0042940D002293ED029
:104E8C0010293CD00268136823F4806313603BE064
:104E9C000268136823F48063136003685A6812F481
:104EAC00006F0CD01A6822F480621A6000230493FD
:104EBC0003685A6904929B690493049B8EE7002251
:104ECC0005925A6905929A690592059A1A6842F4F4
:104EDC0000721A6082E70129CED00268136823F4AD
:104EEC00806313600023079303685A6907929A69D9
:104EFC000792079A1A6842F400721A606EE7026809
:104F0C00136843F4806313600023069303685A69A3
:104F1C0006929B690693069B60E7042915D002292B
:104F2C0013D0102911D00268136843F40063136086
:104F3C000023089303685A6908929A690892089AA0
:104F4C001A6822F480621A600CE00268136843F459
:104F5C00806313600023099303685A6909929B6963
:104F6C000993099B03685A6812F4006F3FF436AF3B
:104F7C0011F5803F08D0012906D0082904D010294A
:104F8C0002D020297FF42AAF5A6842F480525A602A
:104F9C0024E7438D9BB253B1426A036812781A61BD
:104FAC00436A01334362438D013B9BB24385704797
:104FBC00438D9BB253B103681A69436A1A70436AF2
:104FCC0001334362438D013B9BB243857047C36AF7
:104FDC00B3F52A0F04D0C36AB3F12A4F03D070473C
:104FEC000123C36270470823C362F8E7F8B506468D
:104FFC000C4617461D4622E0FFF790F9069BC01A97
:10500C00A84200D8DDB900233363202286F83D2066
:10501C0086F83E30326C42F02002326486F83C3026
:10502C0001201AE033689B6924EA03039BB2B3FAAC
:10503C0083F35B099F420FD1B5F1FF3FDCD1C4F381
:10504C000743012BEED133685B6924EA03039BB25F
:10505C00B3FA83F35B09EDE70020F8BD704700005D
:10506C00002800F0C180F8B5044690F83D30002BC4
:10507C006CD0242384F83D302268136823F001039C
:10508C00136001F02FFB6268594B9A4263D8594B5D
:10509C0098428CBF00230123002B40F0A780564B75
:1050AC00A3FB00239B0C21684A6822F03F021A43A1
:1050BC004A6025682A6A22F03F0266684C498E4293
:1050CC004FD8013313432B622568E96921F44F4112
:1050DC0021F0FF016368464A93424CD801385B00CB
:1050EC00B0FBF3F0013040F6FC73184278D0C0F3FB
:1050FC000B030B43EB6121680B6823F0C003E269DF
:10510C00206A024313430B6021688B6823F403432A
:10511C0023F0FF032269E068024313438B6021688C
:10512C00CB6823F0FF036269A06902431343CB6091
:10513C002268136843F001031360002020642023CD
:10514C0084F83D30206384F83E00F8BD80F83C3094
:10515C00FFF784FF8DE7294B98428CBF0023012376
:10516C009AE74FF4967101FB03F32549A1FB031356
:10517C009B090133A6E7A268BAB9461E03EB4307A5
:10518C00B6FBF7F60136C6F30B06B6FA86F67609C9
:10519C0046BBC2B9421E03EB4303B2FBF3F201322E
:1051AC00C2F30B0242F40043A3E7461E03EB830752
:1051BC0007EB8707B6FBF7F60136C6F30B06B6FA14
:1051CC0086F67609E4E7421E03EB830303EB8303C5
:1051DC00B2FBF3F20132C2F30B0242F4404388E714
:1051EC00042386E7012384E7012070470120ACE704
:1051FC00A08601007F841E0083DE1B43FF083D0058
:10520C00D34D621030B482B00024019490F83D402C
:10521C00E4B2202C56D12E4C2468E4082D4DA5FB6D
:10522C000454240A04EB840404EB84040194019CCC
:10523C00013C0194019C002C35D00468A56915F043
:10524C00020FF4D190F83C50012D3FD0012580F88D
:10525C003C50256815F0010F03D1256845F0010578
:10526C00256005682C6824F400642C60212480F8E7
:10527C003D40102480F83E40002404644262438583
:10528C00438D0385144BC36241640268136843F475
:10529C008073136080F83C400268536843F4E06309
:1052AC00536020460FE000230363202280F83D204A
:1052BC0080F83E30026C42F02002026480F83C30F0
:1052CC00012000E0022002B030BC70470220FAE757
:1052DC00C000002089B5F8140000FFFF2DE9F04351
:1052EC0085B00446884691461D46FFF717F894F89A
:1052FC003D30DBB2202B04D00223184605B0BDE8AC
:10530C00F083064600901923012254492046FFF7EA
:10531C006DFE002840F0978094F83C30012B00F093
:10532C009480012384F83C3023681A6812F0010F32
:10533C0003D11A6842F001021A602268136823F440
:10534C0000631360242384F83D3000232364A3F509
:10535C008033E362012734E0A02384F83D302368D6
:10536C005A69C2F340025969C1F3802194F83D3067
:10537C00DBB2A02B09D042B939B9FEF7CFFF801BA5
:10538C00A842E9D8002DEAD1E6E7202384F83D3085
:10539C0023685A6912F0020F31D11A6842F4007274
:1053AC001A6023686FF480625A61009619230122F7
:1053BC002A492046FFF71AFE00284CD101374F45E9
:1053CC0039D22268136843F48073136000962B461D
:1053DC0000224FF001112046FFF708FE002836D1BD
:1053EC00236808F0FE021A61FEF798FF0646236850
:1053FC005A69C2F340025969C1F38021B6E71A68B1
:10540C0042F400721A600023039323685A690392D2
:10541C009B690393039B0096192301220F49204695
:10542C00FFF7E4FD0346A0B9202284F83D200022BA
:10543C0084F83C2061E7202384F83D30002384F875
:10544C003C30012359E7022357E7022355E7012398
:10545C0053E7012351E701234FE700BF020010007F
:10546C0030B482B090F83D4004F02804282C34D19C
:10547C00002936D0002A36D090F83C40012C34D08C
:10548C00012480F83C400468256815F0010F03D115
:10549C00256845F00105256005682C6824F4006436
:1054AC002C60292480F83D40202480F83E400024C4
:1054BC00046441624285428D0285C3620194036893
:1054CC005A6901929A690192019A80F83C405A6893
:1054DC0042F4E0625A60204600E0022002B030BC88
:1054EC0070470120FAE70120F8E70220F6E730B414
:1054FC0082B090F83D4004F02804282C34D10029C7
:10550C0036D0002A36D090F83C40012C34D00124FF
:10551C0080F83C400468256815F0010F03D125681C
:10552C0045F00105256005682C6824F400642C60A6
:10553C002A2480F83D40202480F83E400024046456
:10554C0041624285428D0285C362019403685A69A7
:10555C0001929A690192019A80F83C405A6842F48F
:10556C00E0625A60204600E0022002B030BC704776
:10557C000120FAE70120F8E70220F6E790F83D3029
:10558C00DBB2202B01D002207047282380F83D305D
:10559C0003681A6812F0010F03D11A6842F0010275
:1055AC001A600268136843F48063136002685368DE
:1055BC0043F440735360002070477047704708B540
:1055CC0090F83D30DAB2438D9BB27BB1416A0368EF
:1055DC0009781961436A01334362438D013B9BB2E5
:1055EC004385438D9BB20BB9292A00D008BD0268B4
:1055FC00536823F48063536021230363282380F8CA
:10560C003D3003F062FBF1E708B590F83D30DAB2BB
:10561C00438D9BB27BB103681969436A1970436A65
:10562C0001334362438D013B9BB24385438D9BB257
:10563C000BB92A2A00D008BD0268536823F4806392
:10564C00536022230363282380F83D3003F023FBAF
:10565C00F1E708B590F83D3003F02803282B07D06C
:10566C0003686FF002025A61002380F83C3008BDD9
:10567C000268536823F48063536011F0040F0BD05D
:10568C00002311F0800F09D18289002180F83C1091
:10569C00194603F0BBFAEAE70123F2E7028BF4E7C1
:1056AC0008B590F83D30DBB2C26A082A01D0202A36
:1056BC0001D1282B06D0212B1ED003686FF48062F9
:1056CC005A6108BD1A4BC3620268536823F4E06345
:1056DC00536003686FF480625A610268136823F4A4
:1056EC008063136000230363202280F83D2080F840
:1056FC003E3003F0B4FAE4E70D4BC362212303639D
:10570C00202380F83D30002380F83E300268536837
:10571C0023F4E063536003686FF480625A6102689B
:10572C00136823F48063136003F0CFFAC9E700BF5A
:10573C000000FFFF704710B590F83D30DBB290F8D9
:10574C003E20D2B2C46A018D09B9212B04D0212B81
:10575C003BD0402A37D010BD082C04D0202C02D0CE
:10576C0014F5803F19D10268536823F4E063536049
:10577C000268136843F4007313600023036320234F
:10578C0080F83D3090F83E30DBB2402B15D0002332
:10579C0080F83E30FFF711FFDDE70268536823F411
:1057AC00E063536011230363002380F83E30202311
:1057BC0080F83D30FFF701FFCDE7002380F83E3045
:1057CC00FFF7B8FFC7E7222BC5D1438D9BB22BB98E
:1057DC000268536823F480635360BCE790F83E3052
:1057EC00DBB2402B0BD0426A036812781A61436A11
:1057FC0001334362438D013B9BB24385ABE7036DA1
:10580C009BB9C36C012B08D0836CC3F307230268CC
:10581C001361036D013303659DE7836C0268DBB292
:10582C001361036D0233036595E7036D012B18D0EB
:10583C00036D022B8FD190F83D30DBB2222B18D0A8
:10584C0090F83D30DBB2212B85D1426A0368127887
:10585C001A61436A01334362438D013B9BB243851A
:10586C0079E7836C0268DBB21361036D0133036566
:10587C0071E70268136843F4807313606BE708B533
:10588C00C26A90F83D30DBB2212B00D008BD438DAD
:10589C009BB25BB1426A036812781A61436A0133A6
:1058AC004362438D013B9BB24385EFE7082A04D04A
:1058BC00202A02D012F5803F19D10268536823F4D4
:1058CC00E06353600268136843F4007313600023B1
:1058DC000363202380F83D3090F83E30DBB2402B40
:1058EC0015D0002380F83E30FFF767FECEE7026844
:1058FC00536823F4E063536011230363002380F89F
:10590C003E30202380F83D30FFF757FEBEE70023E2
:10591C0080F83E30FFF70EFFB8E7704708B590F8F7
:10592C003D30DBB2222B00D008BD438D9BB2032B44
:10593C0014D903681A69436A1A70436A01334362C3
:10594C00438D013B9BB24385438D9BB2032BEBD123
:10595C000268536823F480635360E5E7C26A022A45
:10596C00E2D0012BE0D80268136823F48063136043
:10597C000268536823F4E063536003681A69436A4E
:10598C001A70436A01334362438D013B9BB24385DA
:10599C00202380F83D3090F83E30DBB2402B07D00E
:1059AC00002380F83E3012230363FFF707FEBBE7AA
:1059BC00002380F83E300363FFF7AFFFB4E708B570
:1059CC00C26A438D9BB2042B13D0438D9BB2032B25
:1059DC0020D0438D9BB2022B36D003681A69436AE0
:1059EC001A70436A01334362438D013B9BB243857A
:1059FC000FE00268536823F48063536003681A69EC
:105A0C00436A1A70436A01334362438D013B9BB274
:105A1C00438508BD01684B6823F480634B60042AFE
:105A2C0006D0022A04D00268136823F48063136042
:105A3C0003681A69436A1A70436A01334362438DDF
:105A4C00013B9BB24385E4E7012A0BD0102A09D015
:105A5C00042A36D0022A34D00268136843F4007347
:105A6C00136004E00268136823F480631360036816
:105A7C001A69436A1A70426A531C4362438D013B94
:105A8C009BB2438503681B695370436A01334362BD
:105A9C00438D013B9BB243850268536823F44073EA
:105AAC005360202380F83D3090F83E30DBB2402B21
:105ABC000DD0002380F83E3012230363FFF77EFDE8
:105ACC00A7E70268136843F480631360CFE70023F1
